:100000000C9450020C9488020C9488020C94880280
:100010000C9488020C9488020C9488020C94880238
:100020000C9488020C9488020C94FB200C94CF2131
:100030000C941B1B0C9488020C9488020C9488026C
:100040000C9488020C9488020C9488020C94880208
:100050000C9488020C94A21B0C9488020C948802C5
:100060000C9488020C9488020C9488020C948802E8
:100070000C9488020C9488020C9488020C948802D8
:100080000C9488020C9488020C9488020C948802C8
:100090000C9488020C9488020C9488020C948802B8
:1000A0000C9488020C9488020C94880214001A00A4
:1000B000080000000000000000000C001200130007
:1000C000040016000700150017001C0018000E00A1
:1000D0000F0034001D001B00060009000A000B0081
:1000E0000D00360037003800000000001900050040
:1000F0000000000011001000000000000000E000FF
:100100002C000000000000002C00E40000000000B3
:1001100001000100010000000000000000000100DB
:1001200001000100010001000100010001000100C7
:1001300001000100010001000100010001000100B7
:1001400001000100010001000100010000000000A9
:10015000010001000000000001000100000000009B
:10016000000001000100000000000000010001008B
:10017000000000000100010001000000000000007C
:100180000000010001000100010001000100010068
:100190000100010001000100010001000100010057
:1001A0000100010001000100010001000100010047
:1001B000000000000100010000000000010001003B
:1001C000000000000000010001000000000000002D
:1001D000010001000000000001000100010000001A
:1001E000000000000000010001000100010001000A
:1001F00001000100010001000100010001000100F7
:1002000001000100010001000100010001000100E6
:1002100001000100000000000100010000000000DA
:1002200001000100000000000000010001000000CA
:1002300000000000010001000000000000000000BC
:10024000000000002A2B2800000000000000000031
:100250000000000000000029000000002C1E3420D7
:10026000212224342627252E362D3738271E1F20FD
:100270002122232425263333362E37381F04050642
:100280000708090A0B0C0D0E0F1011121314151686
:100290001718191A1B1C1D2F3130232D3504050684
:1002A0000708090A0B0C0D0E0F1011121314151666
:1002B0001718191A1B1C1D2F3130354C0000000077
:1002C000000000000000000000000000000000002E
:1002D000000000000000000000000000000000001E
:1002E0007E0F00D4FFFFFFC7000000780C03510011
:1002F000660077006600710000001A034D0041009F
:100300004E00550046004100430054005500520085
:100310004500520000000403090409025B000301C8
:1003200000A0FA09040000010301010009211101E4
:1003300000012240000705810308000109040100B3
:10034000020300000009211101000122220007051B
:1003500082032000010705030320000109040200B5
:10036000010300000009211101000122B600070568
:1003700084032000011201000200000008838301B1
:10038000000100010200010660FF0961A10109628C
:10039000150026FF009520750881020963150026C7
:1003A000FF00952075089102C005010902A1018591
:1003B000020901A100050919012908150025019567
:1003C00008750181020501093009311581257F95E4
:1003D000027508810609381581257F950175088108
:1003E00006050C0A38021581257F950175088106DE
:1003F000C0C005010980A101850319012AB70015B4
:100400000126B700950175108100C0050C0901A1F6
:1004100001850419012AA002150126A00295017583
:10042000108100C005010906A1018506050719E034
:1004300029E71500250195087501810205071900B6
:1004400029EF1500250195F07501810205081901B4
:100450002905950575019102950175039101C00566
:10046000010906A101050719E029E71500250195F5
:100470000875018102950175088101050719002998
:10048000FF150026FF009506750881000508190173
:100490002905950575019102950175039101C0002B
:1004A00011241FBECFEFDAE0DEBFCDBF04B603FEDE
:1004B00018C08091B0029091B102A091B202B091A7
:1004C000B3028730904BA740B04B59F41092B00262
:1004D0001092B1021092B2021092B302E0E0F8E37F
:1004E000099511E0A0E0B1E0EAECF8E402C0059063
:1004F0000D92A839B107D9F722E0A8E9B1E001C00F
:100500001D92A03BB207E1F70E941A110C943A2405
:100510000C94000084E0089581E0089581E008953E
:100520000E948E02089508950E9493020895A5E006
:10053000B0E0EDE9F2E00C94A62349835A833091B0
:100540009F0189819A81311119C0662399F0222374
:1005500089F00E941A08182F682F89819A810E94B9
:10056000F60769817A81812F0E9406182596E3E0BB
:100570000C94C2230E940808182FF3CF0E941A0877
:1005800069817A81F1CFFC01262F408151816281FE
:10059000738184810E949702089581E00895CF932A
:1005A000DF93EC0160E00E94C302BE010E9494024E
:1005B000DF91CF910895E1E0F0E0DF0102C0AA0FE2
:1005C000BB1F6A95E2F7BD01DF0102C0AA0FBB1F86
:1005D0004A95E2F76A2B01C0EE0F2A95EAF7962FAB
:1005E0009823961302C08E2B0895E0958E230895CC
:1005F000242F462F682F8091B5010E94DB020E94B4
:10060000560708950E94BF0F08950E94C30F0895D2
:1006100008950E94E8060E9408032FEF84E39CE0FF
:10062000215080409040E1F700C0000008950E94F2
:1006300009030E94C61B08950E9409030E94EA1B39
:1006400008950F931F93CF93DF938C0161E00E9475
:10065000C302EC01B8010E941014811106C080E0B1
:10066000DF91CF911F910F910895B801CE010E94A3
:1006700090028823A1F3B801CE010E944C1988236F
:1006800071F3B801CE010E94FF14882341F3B80131
:10069000CE010E94BE18882311F3F80182818823BD
:1006A00061F0CA35FDE5DF0701F158F4C115ECE54D
:1006B000DE0791F0CE3DDC4591F0C8010E948C022E
:1006C000CFCFCC358DE5D80769F090F0C73ADD453E
:1006D000A1F70E941C03C3CF0E941703C0CF0E9442
:1006E000D30CF7CF0E940D0CE8CF0E94170CE5CF7A
:1006F0000E941B0CE2CF0E94F71A0E9498030895F3
:100700000E949C030E94FC1A089508950E9485038C
:10071000089581E008950E94890308950895CF9374
:10072000C82F0E9486038C2F0E948B03CF910895BF
:1007300080E00E948F0308950E94A8190E948F03F1
:100740000895CF930E94A819C82F80919A018C1701
:1007500079F0C0939A010E94871B60939B0170936C
:100760009C0180939D0190939E018C2F0E948F038A
:10077000CF910895ABE0B0E0E0ECF3E00C94A72358
:100780004F83588769877A878B8761110E94580B3E
:100790001E821D8285E0FE013796DE0111960190D2
:1007A0000D928A95E1F78C819D81892B61F44981B5
:1007B0005A816B817C818D819E810E94810A2B965A
:1007C000E2E00C94C32389819A8189238F3F79F3D6
:1007D000CE0101960E94CD028111E9CFF0CFFC013C
:1007E000808191810E9447080895CF93C82F882364
:1007F000B9F08CEF8C0F813AA8F46C2F8091000136
:10080000909101010E941D1A882329F08C2F0E94CB
:10081000180B0E94790B8C2F0E94100B0E94790BF1
:10082000CF91089580E28C0F883048F4C77081E042
:1008300001C0880FCA95EAF70E943B0BEFCFEBE5AA
:10084000EC0FE33040F4F0E0EB5BFE4F808190E092
:100850000E94DD19E5CFE8E5EC0FE73150F4F0E058
:10086000EE0FFF1FE95EFE4F808191810E94F31918
:10087000D7CFC03FA8F28C2F0E949E110E94711208
:10088000CFCF882379F19CEF980F913A28F40E94FA
:10089000180B0E94790B089590E2980F983050F44D
:1008A000877091E001C0990F8A95EAF7892F0E941D
:1008B000410BEFCF9BE5980F933028F490E080E058
:1008C0000E94DD19089598E5980F973128F490E07B
:1008D00080E00E94F3190895803F20F00E94F811F3
:1008E0000E94711208951F93CF93DF93182FEB018D
:1008F0000E94F503209739F4812F0E944104DF9173
:10090000CF911F9108958FE99FE00197F1F700C003
:1009100000002197EFCF70E060E0893311F460E5CB
:1009200070E00E9473040895882321F00E943B0B1D
:100930000E94790B0895882321F00E94410B0E94A8
:10094000790B0895B0E0A0E0E8EAF4E00C94A0236D
:100950006C01D62FC72FFC011281F580F2949FE025
:10096000F9220E94310BE82E8823B9F0E12E1123E1
:10097000A1F08C2F807F803421F080E28D0F8830B1
:10098000D0F080918A0282FF16C082E00E94DC0BC8
:100990000E94310B91E0E82EE926BC2EB2948FE044
:1009A000B822FBE0FB1508F468C0EB2DF0E0E45C36
:1009B000FB4D0C948A23E12CF0CF0C2F0F70C07FDD
:1009C00011F00295007F112399F0002359F080E285
:1009D0008D0F883010F0D11107C0802F0E943B0B83
:1009E0000E94790B8D2F41C0802F0E944B0BF8CFB6
:1009F0008D2F0E944104002309F43FC080E28D0F37
:100A0000883010F0D11104C0802F0E94410B03C028
:100A1000802F0E94510B0E94790B2FC00C2F0F705A
:100A2000C07FC03211F00295007FDD2381F0D1300C
:100A300009F463C0112309F46DC0FF2009F463C0F9
:100A4000F601858180FFCECF8F7085835CC0809159
:100A50008A0282FD33C0112359F0002329F0802F30
:100A60000E943B0B0E94790B80E00E94F50305C0B9
:100A700080E00E9441040111C7CFEB2DE850FF0B2D
:100A8000349720F40E94A8190E948F03EE2089F069
:100A90000E942D0B80FD0DC0F60112820E94270BD3
:100AA0000E946A07C6010E94A8060E94270B0E94A6
:100AB0007607CDB7DEB7E9E00C94BC23112389F0AB
:100AC000F11006C00E945B0B802B0E949404D5CFCE
:100AD00021E0F212F7CF0E945B0B802B0E94620B89
:100AE000CCCFF11006C00E946F0B802F0E949B0498
:100AF000C4CF31E0F31609F2F6CF112331F085E0CF
:100B00008F1508F4BACF802FE0CF94E09F1508F43A
:100B1000B4CFEBCFFF2049F3D93349F4FFEF27EEF1
:100B200033E0F15020403040E1F700C000008D2F4D
:100B30000E944104A2CF8C2F86958695837069F020
:100B4000813009F09ACF8D2F9C2F9370111102C024
:100B500090E080E00E94F31990CF8D2F9C2F93702E
:100B6000111102C090E080E00E94DD1986CF8D2F28
:100B7000112329F00E949E110E9471127ECF0E94C3
:100B8000F811FACF8C2F837079F5111176CF4D2F94
:100B9000429546954770440F440F8D2F8F70042E59
:100BA00001C0880F0A94EAF72D2F2071D4FF07C0E7
:100BB0002FE030E001C0220F4A95EAF72095C69554
:100BC000C695C370822BC23049F058F4C13019F079
:100BD0000E94440752CF0E943E074FCF0E944A070F
:100BE0004CCF0E943B0749CF8695112311F08C2FE3
:100BF0008170882309F441CF4D2F42954695477067
:100C0000440F440F8D2F8F70042E01C0880F0A945B
:100C1000EAF72D2F2071D4FF07C02FE030E001C08C
:100C2000220F4A95EAF72095C695C695C370822B88
:100C3000C23049F058F4C13019F00E9495071DCF19
:100C40000E948F071ACF0E949B0717CF0E9456075A
:100C500014CFCF70112329F08C2F0E946A078D2F9B
:100C600034CF8D2F0E949B048C2F0E94760705CFD6
:100C7000D23F51F160F4D03FB9F0D13F81F0112360
:100C800009F449C0F110AECE8C2F8F7121C0D33F33
:100C900011F1D43FA1F780918A0282FD26C08C2FEA
:100CA0008F71112311F314C0112349F084E08F15C3
:100CB00008F4E3CE8C2F8F710E948307DECE95E07F
:100CC0009F1508F4DACEF6CF8C2F8F711111CDCF8E
:100CD0000E946A07D2CE112329F08C2F8F710E94B7
:100CE0006107CBCE0E945D07C8CE112349F0CF71BA
:100CF0008C2F0E946A0763E08C2F0E94BE0BBDCE32
:100D000081E00E94DC0BE1E0EF1508F0B6CE82E056
:100D10000E94DC0BB2CEF110FFCE8C2F8F71A5CFCD
:100D20000F931F93CF93DF93EC01688179818A81C0
:100D30000E9452088C010E94A1070E943A07B80144
:100D4000CE010E94A204DF91CF911F910F910895CF
:100D5000CF93DF93EC018B819C81892B29F08881D3
:100D6000998189238F3F51F4DF91CF910895CE016E
:100D70000E949006CE010E94CF02F6CFCE010E94C3
:100D800021038111F4CF0E94310B882369F38A81FA
:100D9000882351F380918A0282FFE6CF82E00E948D
:100DA000DC0BE2CF90E080E00E94DD1990E080E073
:100DB0000E94F3190E94580B0E94790B0E948D1219
:100DC0000E94711208950E94200B0E94D20608957D
:100DD0000E94480B0E94E306089592959F709630FA
:100DE00091F058F4925F9F70923058F4803F19F060
:100DF00030F4883E30F481E008959A5FF4CF843F68
:100E0000D1F380E00895883EB0F3813FD1F7F3CF6E
:100E1000FC0183819481892B29F080819181892330
:100E20008F3F11F480E00895808191810E944708EE
:100E30000E94ED060895A5E0B0E0E1E2F7E00C9431
:100E4000A7232596E2E00C94C323A6E0B0E0EBE2F2
:100E5000F7E00C94A7232696E2E00C94C3230895B0
:100E60000E942F0708950E9430078093B6010E94C8
:100E7000D206089508950E94330708959091B6010F
:100E8000892B0E94330708959091B60189230E940F
:100E9000330708959091B60189270E94330708957A
:100EA0000E942F0708950E94500708950E9453073B
:100EB0008093B5010E94D206089580E00E945607F3
:100EC000089591E001C0990F8A95EAF7892F0E9451
:100ED0005607089521E030E001C0220F8A95EAF715
:100EE0008091B501822B0E945607089521E030E0E1
:100EF00001C0220F8A95EAF720958091B5018223DF
:100F00000E945607089521E030E001C0220F8A9523
:100F1000EAF78091B50182270E94560708959091C3
:100F2000B501892B0E94560708959091B501892338
:100F30000E94560708959091B50189270E9456078F
:100F400008950895262F277091E001C0990F2A95E2
:100F5000EAF723E0769567952A95E1F7FB01EE0F16
:100F6000FF1FE60FF71FE40FF51F50E040E0682F6A
:100F700070E08191DF0111979B01042E02C036952C
:100F800027950A94E2F721702195282729232827FD
:100F90002C934F5F5F4F4330510559F70895A82FA9
:100FA000A77023E0969587952A95E1F7FC01EE0F4F
:100FB000FF1FE80FF91FE60FF71F50E040E080E049
:100FC000219130E00A2E02C0369527950A94E2F767
:100FD00021703327042E01C0220F0A94EAF7822BD6
:100FE0004F5F5F4F4330510559F70895262F9530D5
:100FF00070F48A3060F4682F70E08AE0989F600D8A
:10100000711D112440EA51E0822F0E94A207089529
:10101000292F953068F48A3058F490E060EA71E046
:101020003AE0239F800D911D11240E94CF0708955F
:1010300080E00895CF92DF92FF920F931F93CF939A
:10104000DF936C010091B5018091B601082BC7E0D8
:10105000D0E010E0FC2EC8010C2E02C095958795BB
:101060000A94E2F780FD0CC02197A0F7F12C8F2D98
:10107000DF91CF911F910F91FF90DF90CF90089556
:10108000B6018C2F0E949A0E019771F3F0CFCF9387
:10109000DF93EC010E941A08BE010E949A0EDF91B4
:1010A000CF9108951F93CF93DF93EB0190919F0110
:1010B000992339F0CB010E944708DF91CF911F910E
:1010C0000895882369F0CB010E941A08182F682F11
:1010D000CE010E94F607BE01812F0E949A0EEDCF2D
:1010E000CB010E940808182FF6CF1F93CF93DF93F0
:1010F000C091B70116E08091B8018C1304C0DF9154
:10110000CF911F910895D0E01C9FF0011D9FF00D1D
:101110001124E754FE4F40815181628173818481A3
:1011200095810E9425072196C770E5CF4091E9017E
:101130005091EA016091EB017091EC018091ED0119
:101140009091EE010E94250708951F93CF93DF939E
:101150008091EE01807F09F049C08091EB018823E6
:1011600009F444C08091B701C091B8016091E901D0
:101170007091EA01A091EC01B091ED01D62FD72337
:1011800016E0C81799F190E0109711F0DF3F19F4BD
:1011900001968770F6CF189F9001199F300D11248A
:1011A000F901E754FE4F41814713F2CF40814613C6
:1011B000EFCF42814111ECCF438154814A1B5B0B3D
:1011C000483C510528F78091EE018F708061809333
:1011D000EE01F901E254FE4F80818F7080618083BF
:1011E00089EE91E00E94A8060E947508DF91CF91D8
:1011F0001F910895A1E1B0E0E0E0F9E00C949F2395
:101200008C0185E0F801DE011D9601900D928A9512
:10121000E1F7F801E28089EEC82E81E0D82E6091D6
:10122000EC017091ED016115710509F44EC19091C9
:10123000E9012091EA01892F82238F3F09F445C1FA
:1012400040815181A380B480F090EB01F501E61B51
:10125000F70BFF2009F4EAC08091EE01382F307FB0
:10126000E83CF10508F0A3C031116DC0FE2C251338
:1012700016C0941314C0E11012C08F708061809367
:10128000EE010E949608C6010E94A8068091EE0118
:10129000F80185838F2D6196EAE00C94BB23A1149D
:1012A000B10429F0842F85238F3F09F027C180E006
:1012B000F82FF170DF2E80FF3CC08091B7012091A4
:1012C000B80136E0821315C04D875E878D859E85F7
:1012D0000E944708292F22952F702230F0F02430E9
:1012E00018F59F70F1F0F8019581907FD1F4D12C21
:1012F0001EC090E0389FF001399FF00D1124E75493
:10130000FE4F6181651306C06081641303C0628172
:10131000E6120FC001968770D5CF9F7011F0882319
:1013200031F3805E883018F3C8010E94A806FD2CB6
:10133000B1CFEE2009F4AECF8091EE0181608093B1
:10134000EE01F12CA7CF251306C0941304C0F801B9
:10135000EE2009F487C0C8010E940807882319F10C
:10136000EE2009F18091EE01803270F02091E901C8
:101370003091EA0138872F831986BB86AA868C872D
:10138000CE0107960E94A80686E0F801A9EEB1E01A
:1013900001900D928A95E1F70E94A5080E94960897
:1013A000FF24F39477CFC8010E94A806F9CF31112A
:1013B00013C07A2DB98AA88A6E2D89890E941B07CD
:1013C00089EE91E00E94A80686E0F60111928A95C6
:1013D000E9F70E949608B5CF25130FC094130DC0EE
:1013E000E1100BC0F8018583C8010E94A80686E0C1
:1013F000F60111928A95E9F74DCFC8010E940807BE
:10140000882389F2EE2079F28091EE01803208F48F
:10141000BBCF2091E9013091EA013A8329831B82F5
:10142000BD82AC828E83CE010196ACCFE83CF10543
:1014300008F03EC0FE2CEE2009F4B5CF25132AC0DB
:10144000941328C08091EE0180FD1BC0982F907FDF
:10145000C1F0F8018583903F31F0982F907F905F25
:101460008F70892B8583C8010E94A80686E0F80149
:10147000A9EEB1E001900D928A95E1F70E949608DD
:1014800009CF86E0F801A9EEB1E001900D928A95AE
:10149000E1F700CFC8010E940807811175CF809144
:1014A000EE0181608093EE01C8010E94A806F2CE91
:1014B0007A2DB98AA88A6E2D89890E941B0786E039
:1014C000F60111928A95E9F7D9CFEE2009F46BCF96
:1014D000C8010E940807F82E882309F464CF86E02B
:1014E000F801A9EEB1E001900D928A95E1F789EE3D
:1014F00091E00E94EF030E94A508C0CF81E08E25F5
:10150000D7CEACE0B0E0E7E8FAE00C94A6234F8336
:10151000588769877A878B879C87CE0107960E94B8
:10152000FA08882369F08A859B85892B39F04F81D9
:101530005885842F85238F3F09F06BC016E05FC06C
:1015400086E0FE013796DE01119601900D928A9594
:10155000E1F78A859B85892B89F38F81988589237B
:101560008F3F61F32091B80130E0C9010196877087
:1015700099274091B7014817190671F40E94E806AF
:101580001092B8011092B70186E0E9EEF1E0DF01B8
:101590001D928A95E9F7D2CF96E0929FD001939F52
:1015A000B00D1124A754BE4FFE01319601900D924B
:1015B0009A95E1F78093B8010E947508BFCF819F8B
:1015C000C001112487549E4F0E94FA088823E9F035
:1015D000E091B7011E9FF0011124E754FE4F4081B6
:1015E000518162817381848195810E942507809158
:1015F000B70190E00196877099278093B701809199
:10160000B7019091B8018913DACF2C96E3E00C94DE
:10161000C22369857A858B859C850E9425078ECF9C
:10162000682F80910001909101010E949D1A0895F8
:10163000682F80910001909101010E94AB1A0895DA
:1016400080910001909101010E94B91A0895809142
:101650000F02859585958595089580910F02877075
:10166000089590910F02977081E009F480E0089549
:1016700080913202089590913202892B8093320238
:1016800008958095909132029823909332020895A4
:1016900010923202089590913102892B8093310289
:1016A0000895809590913102982390933102089586
:1016B00010923102089580911002089508950E94B9
:1016C0005E0B089590918A0292FF08C090911002DB
:1016D000981721F0809310020E945F0B089580916B
:1016E0001002882329F01092100280E00E945F0B04
:1016F0000895CF93DF93E0910001F0910101809173
:1017000032028083E0910001F0910101808190918B
:101710003102892B808390911002992381F0E0910E
:101720000001F09101018081892B8083809100016B
:10173000909101010E94091A81110E946F0BC091C2
:101740000001D091010140E250E06FEE71E0CE0166
:101750000E94E223892B59F080E2FE01AFEEB1E056
:1017600001900D928A95E1F7CE010E94B519DF91A3
:10177000CF91089508950E94BA0B089590918A021E
:1017800092FF11C098E0899F90011124622B609311
:101790000F020E946A0780910F02859585958595B5
:1017A0000E94BB0B08950E946A07089510920F02D1
:1017B00080E00E94BB0B089590910F0280958923D1
:1017C00080930F02282F277091F4282F082E000CE9
:1017D000330B9217130659F090918A0292FF07C0BB
:1017E0008595859585950E9476070E94D60B08956C
:1017F00090918A0292FB222720F9281769F080FB3A
:1018000092F990938A028091890290918A020E94B3
:101810004A0C82E00E94DC0B089580918A0282FBD0
:10182000882780F991E089270E94F80B089581E0CC
:101830000E94F80B089580E00E94F80B08956FEF66
:101840007FEF90E080E00E942424089590E080E003
:101850000E940024883E9E4F19F40E94AB13089505
:1018600080E0089582E090E00E94F823089583E0EC
:1018700090E00E94F8230895CF9384E090E00E94C6
:10188000F823C82F82E290E00E94F823982F8C2F33
:10189000CF910895CF93C92F682F84E090E00E94E4
:1018A00006246C2F82E290E00E940624CF910895D6
:1018B000AB01BC018FE090E00E9418240895AB01B9
:1018C000BC0183E190E00E941824089560E070E07C
:1018D000CB010E945F0C089560E070E0CB010E9494
:1018E000580C0E94660C089568EE7EEF90E080E050
:1018F0000E94242460E082E090E00E94062460E0E0
:1019000083E090E00E9406241092B60160E084E03B
:1019100090E00E94062464E082E290E00E940624A7
:1019200060E085E090E00E94062460E086E090E0C0
:101930000E9406246FEF87E090E00E94062440E0BA
:1019400050E0BA0188E090E00E94182460E08DE049
:1019500090E00E94062440E050E0BA0188E190E067
:101960000E94182460E087E190E00E94062440E095
:1019700050E0BA018CE190E00E94182470E060E031
:1019800080E290E00E94242440E050E0BA0188E127
:1019900090E00E94182480E00E94C4130E94F31378
:1019A0000E946C0C08950E94740C0895682F8EE0BC
:1019B00090E00E94062408950E94871B60934302D2
:1019C00070934402809345029093460260933F02D5
:1019D00070934002809341029093420208950895CB
:1019E00008950E94F00C089508950E94F40C089543
:1019F00084E89FE00E949E190E94EF0C0E94F10C67
:101A0000089581E008950E94010D089508950895B4
:101A10000E94060D0E94070D08950E94A30F0E94C8
:101A20008E0308950E94721B0E9403140E947B1073
:101A30000E940D0D0E94F50C0895AAE0B0E0E3E2CB
:101A4000FDE00C949C230E94911025E3822E22E05D
:101A5000922E640110E0F601E190F1906F01812F68
:101A60000E94C60F1F5F153009F449C0E816F90639
:101A700091F38091470281FD0E94CF0F0E94030DD8
:101A8000782E10E0812F0E94C60F7C01F401A190F6
:101A9000B1904F018A159B0561F1A826BF2400E093
:101AA000CC24C394D12CC5018C219D21892BC1F05C
:101AB0007720B1F00E831F8321E0C7018C219D2187
:101AC000892B09F420E028870E947B1B8160782FF6
:101AD0009A8789874E815F8168858A850E94BA03CB
:101AE0000F5FCC0CDD1C0A30F1F6F4013297F18265
:101AF000E0821F5F153031F60E94DC0C22C0E81630
:101B0000F90609F0B6CF0E947B1B8C01809133024D
:101B10009091340208171907A1F08FEF89838A8307
:101B20001B820E947B1B8160782F9D838C8349815F
:101B30005A816B818D810E94BA0310933402009305
:101B400033020E94AF120E94A1032A96EDE00C948A
:101B5000B823CF93DF930E949F0EEC01811521E5FE
:101B6000920708F042C0811530E5930708F09FC046
:101B7000883E910530F5803E910508F094C0883A82
:101B8000910588F4853A910508F086C08130910569
:101B900009F489C0009709F486C0049708F083C04F
:101BA000D0E0C0E080C08F3B9105D0F7C85AD0E0AC
:101BB000CC0FDD1FC85BDE4F0990D881C02DD464E7
:101BC00072C0811540E2940750F4C11581E0D80736
:101BD00008F069C0C03FD10518F3D06564C0811515
:101BE0009044F0F2DF70D06A5EC0811535E593074E
:101BF00018F5811544E5940708F085C0C11583E503
:101C0000D80708F06CC0C11522E5D20708F462C0FD
:101C1000CE018370992721E030E002C0220F331FEC
:101C20008A95E2F7C695C69580E2C89FE001112427
:101C3000C22BD32BDC6837C0811539E59307A8F494
:101C4000811548E5940708F063C0C11586E5D807FB
:101C500008F0A6CF8C2F0E94410FC82FD0E0DC2FB8
:101C6000CC27CC27DF71D0621EC081152AE59207F0
:101C700008F453C090568115904208F091CF8D2FF3
:101C80008F710E94410F90E0982F882788279F71BD
:101C90009C012C2BE901E7CFC55AD0E0CA58DE4F92
:101CA000C881D0E0D064CE01DF91CF9108958370D8
:101CB000992721E030E002C0220F331F8A95E2F716
:101CC000C695C69540E2C49FE0011124C22BD32BD8
:101CD000DD68E9CFDC2FCC27C16FD06AE4CFCE011D
:101CE0008370992721E030E002C0220F331F8A95CC
:101CF000E2F7C695C69540E2C49FE0011124C22BCD
:101D0000D32BDA68D0CFD82FCC27C46FD06ACBCFF3
:101D1000D82FCC27C06FD06AC6CF8F700E94410FDA
:101D200034E0D695C7953A95E1F7CF709C2FEC013A
:101D3000D069B9CF0E9406180E94A90D0895823873
:101D40009105B9F1B0F48133910509F47DC048F4EF
:101D50008932910509F46DC08A32910509F47BC07E
:101D600008958533910509F45FC08933910509F120
:101D70000895833E9105D9F138F4803E910529F10B
:101D8000823E910579F10895863E9105D9F1873E0D
:101D9000910509F43EC0843E910541F520918A02E7
:101DA00021FF24C08091890284FD19C087EE90E054
:101DB000089520918902237009F05AC020918A0267
:101DC00023FF14C089E290E008952091890220FD4C
:101DD00038C030918A0230FF09C024FF43C090E030
:101DE00080E008952091890222FDF7CF0895209187
:101DF000890222FD3AC030918A0230FD39C024FFA9
:101E0000F5CFEDCF2091890223FFF0CF24FDE7CF5E
:101E1000CDCF2091890223FD2EC030918A0231FF5F
:101E2000EECF84EE90E008952091890225FFDECF69
:101E3000C9CF2091890225FD21C020918A0223FF6C
:101E4000D5CF89E390E0D2CF2091890226FFCECF73
:101E50008AE290E008952091890226FFC7CF81E3AE
:101E600090E0089583EE90E0089582EE90E008956A
:101E700080EE90E0089586EE90E0089585E390E08E
:101E800008959091890292FF06C0282F287128306A
:101E9000F9F4877F846093FF06C0282F28712831CA
:101EA000F1F4877E846120918A0220FF06C0382FDA
:101EB00038713830D9F4877F816021FF06C0282F20
:101EC00028712831D1F4877E816194FD877E089541
:101ED000282F24712430F9F68B7F8860DCCF282FDF
:101EE0002471243101F78B7E8861DDCF382F317169
:101EF000313019F78E7F8860E0CF282F2171213192
:101F000021F78E7E8861E1CF80E008950E941F0C4A
:101F100008950E9491102FEF86E791E021508040B4
:101F20009040E1F700C000000E94911080E00E9404
:101F3000C60F80FF04C00E94860F0E94C61B089532
:101F40000E94890F08950E94260C811102C00E94F0
:101F5000D30C0E94320C809347020E943C0C909359
:101F60008A02809389020E94A00F0E94370C0E946F
:101F70003B078091B5010E945307089508950E9480
:101F8000BE0F089508950E94C20F0895E82FF0E053
:101F9000EE0FFF1FEB56FD4F80819181089508954C
:101FA00080EA8A95F1F7089500C008950E94D00F45
:101FB0000895F894E82FE295EF70F0E031A1282F12
:101FC0002F7081E090E001C0880F2A95EAF7982FE2
:101FD0009095932391A392A1892B82A3789408953D
:101FE000CF93DF93C3E8D1E089918F3F11F00E9436
:101FF000D90F81E0C838D807B9F7C9E7D1E089918E
:102000008F3F11F00E94D90F81E0C338D807B9F78C
:10201000DF91CF910895AF92BF92DF92EF92FF923E
:102020000F931F93CF93DF938C01D62EC62FD0E052
:10203000CE018D579E4F7C01FC0120812F3F09F47A
:102040004DC0F894E22FE295EF70F0E031A12F70CF
:1020500081E090E001C0880F2A95EAF7932F982B32
:1020600091A392A18095892382A378940E94D40F92
:10207000E9E7F1E043E851E021E030E0B12CA12CA8
:1020800061916F3FA9F1A62FA295AF70B0E0909635
:102090008C9190E06F7002C0959587956A95E2F7F4
:1020A00080FD26C0C901A82AB92A220F331F4E1766
:1020B0005F0731F7F70180818F3F11F00E94D90F40
:1020C00061E0A114B10409F460E08D2D0E94D60FE7
:1020D000CC0FDD1FC00FD11FB982A882DF91CF9135
:1020E0001F910F91FF90EF90DF90BF90AF900895F8
:1020F00090E080E0D8CF0E94F00F8AE0E5E9F2E0BE
:10210000DF01982F1D929A95E9F7EBE8F2E0DF01E5
:102110001D928A95E9F785E00E94CC100E94020387
:102120000895AAE0B0E0E7E9F0E10C94A4238E0161
:102130000F5F1F4F8AE0F80111928A95E9F7F12CA1
:102140006F2DC8010E940B10F394F5E0FF12F8CF39
:102150004AE050E0B8018BE892E00E94E22321E0DF
:10216000009709F420E0892B41F08AE0F801ABE800
:10217000B2E001900D928A95E1F745E065E972E0E1
:102180008BE892E00E94CD10182F0E940503812F4A
:102190002A96E5E00C94C0230895CF92DF92EF9247
:1021A000FF921F93CF93DF936C017B01C42F2223F7
:1021B00049F081E080934A020E947B1B9093490280
:1021C0008093480210914A0211110AC010E0812F39
:1021D000DF91CF911F91FF90EF90DF90CF90089506
:1021E00080914802909149020E94931B059770F3D9
:1021F000D0E0CC0FDD1FAE01B601C7010E94E22383
:10220000892B41F0AE01B601C7010E94EF23109265
:102210004A02DDCF10E0FBCF0E94D51D0E94120DB7
:102220000E94E21D08950E94E71D0E941D0D0E945C
:10223000011E08950E94141B0E94BB1D0E94F80CF1
:102240000E940C110E9413110E94080DFBCF809177
:10225000510280FF0DC06091070170E0660F771F8B
:102260006038710570F56115710569F1862F089563
:1022700081FF07C06091070184E0689FB0011124CD
:10228000EFCF6091070182FD0AC080915002882340
:10229000A9F02091060160910701821710F088E0F3
:1022A000ECCF869FC001112433E0880F991F3A9527
:1022B000E1F7622F70E00E947623D2CF68E070E0F1
:1022C000D5CF8FE7089581E008958091510280FF76
:1022D0000CC06091030170E07595679575956795E1
:1022E0006115710549F1862F089581FF06C060913F
:1022F000030170E075956795F3CF6091030182FD4E
:102300000BC090914F029923A1F06091020180913E
:102310000301961738F0682F70E06038710500F3FC
:102320008FE70895899FC001112470E00E947623F1
:10233000F4CF61E070E0D7CF81E00895803F31F4C1
:102340000E9427118195809355020895813F19F4C9
:102350000E942711F8CF823F31F40E942711819506
:10236000809354020895833F19F40E942711F8CFF7
:10237000893F29F40E9465118093560208958A3F8F
:1023800021F40E9465118195F7CF8B3F31F40E94B3
:10239000651181958093570208958C3F19F40E942E
:1023A0006511F8CF9CE0980F953070F4845F990B1D
:1023B00021E030E001C0220F8A95EAF780915302B4
:1023C000822B8093530208958D3F31F48091510206
:1023D00081608093510208958E3F21F480915102D3
:1023E0008260F7CF8F3FB9F7809151028460F1CFBF
:1023F00040915402803F59F48091550287FF0DC0EF
:102400001092550241110BC01092500208C0813F3A
:1024100081F48091550218169CF3442381F0809139
:10242000560290915702892B09F05AC010924F0220
:102430000895823F49F447FFF0CF109254028091F3
:1024400055028111ECCFE0CF833F19F41416ACF3A1
:10245000E4CF90915602893F29F41916F4F61092B0
:102460005602DBCF8A3F19F497FFD7CFF8CF909170
:1024700057028B3F29F497FFD0CF10925702CDCF50
:102480008C3F19F41916CCF3C8CF9CE0980F953007
:1024900090F4845F990B21E030E0B90102C0660F2F
:1024A000771F8A95E2F7CB0180959091530289239B
:1024B00080935302B2CF8D3F31F4809151028E7FD1
:1024C00080935102AACF8E3F21F4809151028D7FDB
:1024D000F7CF8F3F09F0A1CF809151028B7FF0CFD2
:1024E00008950E947B1B9C0190915402809155029B
:1024F000982B21F030934E0220934D02909156027A
:1025000080915702982B21F030934C0220934B027C
:1025100082E592E00E94CF19089586E0E2E5F2E0BC
:10252000DF011D928A95E9F71092500210924F0236
:10253000109251020895FC01828181110EC08381A5
:1025400081110BC08481811108C091E085818111C6
:1025500001C090E0892F8170089581E0FCCFA6E052
:10256000B0E0E5EBF2E10C94A62386E0E2E5F2E0D0
:10257000DE01119601900D928A95E1F710925402B6
:102580001092550210925602109257028B819C8134
:10259000892B89F080914D0290914E020E94931BED
:1025A000AC01909150029923C9F1809108018417E0
:1025B000150608F440C08D819E81892B91F0809191
:1025C0004B0290914C020E94931BAC0190914F02E0
:1025D000992309F471C0809104018417150608F449
:1025E00079C0BE016F5F7F4F82E592E00E94CB1AF7
:1025F000811105C082E592E00E949B1281110E9428
:10260000711286E0FE013196A2E5B2E001900D92D2
:102610008A95E1F72696E3E00C94C2232091090104
:102620008AE0289F900111242417350720F69F5F28
:102630009093500202C09F3FD1F71B81112359F0A4
:102640000E9427119FEF11160CF491E0899F802DB5
:102650001124809354021C81112359F00E942711E8
:102660009FEF11160CF491E0899F802D1124809327
:10267000550230915402332309F49DCF2091550225
:10268000222309F498CF45EB3403C0011124992388
:1026900059F09093540245EB240390011124332305
:1026A00039F03093550287CF81E080935402F3CF05
:1026B00081E0809355027FCF209105018AE0289F19
:1026C000900111242417350708F08BCF9F5F90935A
:1026D0004F0202C09F3FD1F71D81112359F00E9484
:1026E00065119FEF11160CF491E0899F802D112444
:1026F000809356021E81112359F00E9465119FEFAD
:1027000011160CF491E0899F802D112480935702BB
:1027100030915602332309F464CF209157022223CB
:1027200009F45FCF45EB3403C0011124992359F01C
:102730009093560245EB240390011124332339F082
:10274000309357024ECF81E080935602F3CF81E061
:102750008093570246CF83E290E00E94F8238332B1
:1027600089F484E290E00E94F823823059F485E2F3
:1027700090E00E94F82391E0873109F090E0892FE2
:102780008170089580E0FCCFCF93C82F6FEF811147
:1027900063E283E290E00E9406246FEFC11162E0E1
:1027A00084E290E00E9406246FEFC11167E185E2A8
:1027B00090E00E940624CF910895089586E290E06B
:1027C0000E94F823682F70E090E080E0089508955B
:1027D000CF93C62F0E94E7136C2F86E290E00E94F1
:1027E0000624CF91089580E00E94C41360E070E059
:1027F000CB010E94E8130E9480170E94631881E0B9
:102800000E94C41308950E94DD130E94DE130E94EB
:10281000E7130E94AB13811102C00E94F3130895C5
:10282000CF93FB01C281CC2309F19C0122513F458A
:102830002031310520F582510E947318C0E08C2FA1
:10284000CF91089581E00E946A0743E062E081E051
:102850000E94F802F3CF81E00E94760743E062E035
:1028600081E00E94F802EBCF82E0F6CF8031FFE5F5
:102870009F0789F381319F45B9F3C1E0E0CF8031F3
:10288000EFE59E07F9F281319F45C9F682E0DBCF83
:102890002FEFFC0120830895EF92FF920F931F9377
:1028A000CF93DF93EC01062FE881E150E33108F08C
:1028B0005DC0F0E0E85BFB4D0C948A2319828AE04E
:1028C0008A83602FCE010E948E1CCDB7DEB7E6E072
:1028D0000C94BF238981823069F0833071F081309C
:1028E000D9F40E94871B0E9490236A837B838C8388
:1028F0009D83E7CF0E94DE13F6CF7E0110E0812F8B
:102900000E94C60FF701928383831F5FF2E0EF0EF0
:10291000F11C1530A1F7D5CF602FCE010E944814CD
:10292000D0CF89818230C1F76A817B818C819D8182
:102930000E9490230E94E813C4CF4B816A81898151
:102940000E9442179827892798279D838C83B9CFA7
:102950002C813D813227232732274B816A8189814F
:102960000E946417AECF0E948017ABCF8FEF888391
:10297000A8CF0E9414188983A4CF0E941618982704
:10298000892798279A8389839CCF6B8170E08981FE
:102990009A81AE014C5F5F4F9827892798270E9444
:1029A00019188FCF6B8170E089819A81AE014C5FDD
:1029B0005F4F9827892798270E943E1882CF0E9450
:1029C00063187FCF0E943017D6CF6B8170E089816A
:1029D0009A81AE014C5F5F4F9827892798270E9404
:1029E000BE176FCF6B8170E089819A81AE014C5F19
:1029F0005F4F9827892798270E94E21762CFCF93CD
:102A0000DF93EC01FB018281882309F464C1C330A8
:102A1000FDE5DF07E0F5CA3F9CE5D90730F49E01EC
:102A200022503C4524313105D8F50E943C0C90934E
:102A30008A0280938902C231ECE5DE0709F41FC1E6
:102A400008F06EC0C9308CE5D80709F4F2C008F070
:102A50003FC0C530ECE5DE0709F4DBC058F5C330F4
:102A60008CE5D80709F4CDC008F0CFC08091890269
:102A70008160C230DC4509F4AEC08091890290913A
:102A80008A020E944A0C0E94E80680E009C0C53A0A
:102A9000EDE5DE0751F238F4C1369DE5D90729F29C
:102AA000DF91CF9108959E012D5A3D452330310588
:102AB000B8F7BBCF809189028062C730FCE5DF07A1
:102AC00009F489C008F4B1C080918902806483C090
:102AD000CD309CE5D90709F4BAC070F48091890221
:102AE0008E7FCB30FCE5DF0709F475C008F4A7C082
:102AF000809189028D7F6FC0CF309CE5D90709F4A2
:102B0000B6C008F4A8C0C031FCE5DF0709F4B3C0C3
:102B1000C131DC4509F0B1CF809189028F7B5BC068
:102B2000CF3F9CE5D90709F4B4C098F5CA3FFCE54E
:102B3000DF0709F472C0B8F4C4319CE5D90709F481
:102B4000B6C008F4A2C0C531DC4509F096CF80912B
:102B5000890282FB992790F921E0922790FB82F964
:102B600090FB83F938C0CC3F8CE5D80709F477C0D7
:102B700008F457C0CD3FECE5DE0709F474C080913E
:102B80008A028360CE3FDC4509F077CF80938A02CA
:102B900074CFC1368DE5D80709F496C068F4C1300A
:102BA000EDE5DE0709F48CC008F477C0C230DD45DE
:102BB00009F063CF80E085C0CD3A9DE5D907E9F003
:102BC00068F490918902892F8E7F90FF8160C53AC9
:102BD000DD4509F052CF809389024FCFCE3A8DE583
:102BE000D80789F1CF3ADD4509F047CF90918A02A5
:102BF000892F877F93FF8860C9CF80918A02886080
:102C0000C5CF809189028260E6CF8091890284607D
:102C1000E2CF809189028860DECF80918A02816054
:102C2000B5CF80918A028260B1CF809189028061A4
:102C3000D2CF0E94E806809189028068CCCF809133
:102C400089028C60C8CF80918A02877F9FCF809154
:102C500089028B7FC0CF80918902877FBCCF809112
:102C60008A028E7F93CF80918A028D7F8FCF809151
:102C700089028F7EB0CF809189028F7DACCF0E9478
:102C8000E806809189028F77A6CF80918902837FA1
:102C9000A2CF80918A028C7F79CF80918A02982F6F
:102CA000909591708E7F892B90FB81F96FCF0E9458
:102CB000E80690918902892F97FB87F980588BCF7E
:102CC00081E00E94D60CD9CE90918902892F8F7E07
:102CD00094FF806180CF81E0E3CEB0E0A0E0E3E745
:102CE000F6E10C94A223E82FF0E0E45CFD4FD490D1
:102CF000282F26952695269530E0F901E452FD4FC0
:102D00000491877010E0082E02C0159507950A946B
:102D1000E2F701701127F901E453FD4FE490F12C23
:102D2000082E02C0F594E7940A94E2F791E0E922B4
:102D3000FF24F901E454FD4FC491D0E002C0D595C1
:102D4000C7958A95E2F7C170DD270115110519F0C5
:102D500081EE0E94F503E114F10419F086EE0E9461
:102D6000F5038D2D0E948B04E114F10419F086EE19
:102D70000E9441040115110519F081EE0E944104E1
:102D8000CD2B19F08CE20E948B04CDB7DEB7E7E0C3
:102D90000C94BE23EF92FF920F931F93CF93DF9378
:102DA000EC01162F0AE08881882309F454C0813091
:102DB00009F04EC08981813099F47E0122E0E20E53
:102DC000F11C8A810E948B04E7012196812F81509A
:102DD00050F3EFE9FFE03197F1F700C00000F7CFC3
:102DE000823041F47E0182E0E80EF11C8A810E946B
:102DF000F503EACF833041F47E01E2E0EE0EF11CF0
:102E00008A810E944104E0CF843011F02196DDCF09
:102E10002A81229690E080E0AE014F5F5F4F205301
:102E2000330B2A30310548F0019778F2EFE9FFE0E3
:102E30003197F1F700C00000F7CF089FB001099F5C
:102E4000700D1124C901860F971F2981EA01E4CF73
:102E50000E946D16BACFCDB7DEB7E6E00C94BF2363
:102E600084E0089550E0440F551F94E1699F400DA0
:102E7000511D112494E6899F400D511D1124CA0152
:102E8000879608950F931F93CF93DF938430C8F4F0
:102E90006530B8F44A30A8F40E9432178C010E94C1
:102EA000F823C82FD0E0DC2FCC27C80101960E9460
:102EB000F8239E01282BC901DF91CF911F910F911B
:102EC000089590E080E0F8CF0F931F93CF93DF93A6
:102ED000122F032F843078F4653068F44A3058F4A8
:102EE0000E943217EC01602F0E940624612FCE0150
:102EF00001960E940624DF91CF911F910F910895B2
:102F0000B0E0A0E0E6E8F7E10C94A0239CEAC92E2B
:102F100090E0D92ED0E0C0E07601B12C20C00E9414
:102F20008A0221E030E08C171D0641F03CF0F801E8
:102F3000EE0FFF1FEE0DFF1D25913491402F6B2DDD
:102F40008C2F0E9464170F5F1F4F0A30110539F74D
:102F500084E1E80EF11CB39485E0B81619F010E096
:102F600000E0DDCF219684E6C80ED11CC430D10527
:102F700099F6CDB7DEB7E9E00C94BC23EF92FF924F
:102F80000F931F93CF93DF93EC018A017C01E60E30
:102F9000F71ECE018796CE15DF0529F4CDB7DEB733
:102FA000E6E00C94BF23C03921E0D20740F40E9430
:102FB000F823F80180830F5F1F4F2196EACFF801B5
:102FC0001082F9CFB0E0A0E0E8EEF7E10C94A12385
:102FD0007C016A018C01060F171FEC01CE01879658
:102FE000C017D10729F4CDB7DEB7E8E00C94BD23B4
:102FF000C03921E0D20740F4FE01EE19FF09EC0DC3
:10300000FD1D60810E9406242196E8CF462F843062
:1030100040F4753030F46A3020F4672F0E94421774
:10302000089590E080E0089580E1089589E492E0B9
:103030000895EF92FF920F931F93CF93DF93EC01CC
:103040008A017C01E60EF71ECE0189549E4FCE15F3
:10305000DF0529F4CDB7DEB7E6E00C94BF23C93411
:1030600022E0D20740F40E94F823F80180830F5F2A
:103070001F4F2196E9CFF8011082F9CFB0E0A0E010
:10308000E4E4F8E10C94A1237C016A018C01060FB1
:10309000171FEC01CE0189549E4FC017D10729F4A8
:1030A000CDB7DEB7E8E00C94BD23C93422E0D207E7
:1030B00040F4FE01EE19FF09EC0DFD1D60810E9438
:1030C00006242196E7CFCF93DF93C7EBD1E060E0F2
:1030D000CE010E9406242196C11584E0D807B9F7D5
:1030E000DF91CF910895A4E0B0E0E9E7F8E10C9416
:1030F000A223F82E8FE08F1548F18FEF93E00E9406
:10310000F823811123C007EB11E0F11023C01982CD
:103110001A821B821C82DD24D39478018FEFE81A77
:10312000F80AC8010E94F82389831A82882371F063
:103130009FEF980F9330D8F48A83D9820E5F1F4F88
:10314000C7010E94F8238B83811112C02496E7E007
:103150000C94BE23011584E01807C1F3C8010E9436
:10316000F823811101C0FA940F5F1F4FCECF870162
:1031700060E0CE0101960E94CA16CFCFCF93DF93B5
:10318000EB0186319C4511F50E94380B9A819923F9
:1031900099F08A7A91E009F490E0909358028111B5
:1031A00009C089E20E94100B0E94790B80E0DF9138
:1031B000CF91089585E3F6CF80915802811104C024
:1031C00089E20E94180BF0CF85E3FBCF81E0EFCFBF
:1031D0000F931F93CF93DF93C42FD22FFC018281D3
:1031E0008823C9F040935B020E947B1B90935A0294
:1031F0008093590280E28C0F883040F4C77081E0E0
:1032000001C0880FCA95EAF70E949404DF91CF911C
:103210001F910F91089510915B02141332C0809199
:10322000590290915A020E94931B883C910548F5DF
:10323000C0E2CD0F1D17B9F080E2810F883040F455
:10324000177081E001C0880F1A95EAF70E949B046D
:10325000C83048F481E09D2F977001C0880F9A957F
:10326000EAF70E949404802F0E948B04C83070F605
:10327000D77081E001C0880FDA95EAF70E949B04BD
:10328000C5CF80E28C0F883008F6C77081E001C09E
:10329000880FCA95EAF7F2CF0F939C01CB01233F29
:1032A0004CE5340759F1A8F4283DFCE53F0701F14E
:1032B000293D4CE53407D1F1273D3C4591F406E228
:1032C00021EE41EE67ED7CE50E94E81880E00F9169
:1032D0000895253FFCE53F07E9F0B0F0263F3C4567
:1032E000F9F0FC018281882339F110925B02EFCF63
:1032F00007E225EE45EE68ED7CE5E6CF06E221EE3D
:1033000040EE63EF7CE5E0CF07E225EE44EE64EFAC
:103310007CE5DACF06E221EE42EE65EF7CE5D4CF24
:1033200007E225EE46EE66EF7CE5CECF08E221E02F
:1033300045EE69ED7CE5C8CF81E0C9CF9093990156
:10334000809398010895909361028093600208959C
:10335000E0916002F0916102309729F00190F081D4
:10336000E02D0995089580E00895E0916002F091C4
:103370006102309799F020911601222359F0209193
:10338000890227FF07C0DC012C9111962C9311971D
:1033900026E02C930280F381E02D09950895E091B9
:1033A0006002F0916102309739F022E0DC012C9349
:1033B0000480F581E02D0995089520915E023091F9
:1033C0005F022817390771F090935F0280935E02C5
:1033D000E0916002F0916102309721F00680F78160
:1033E000E02D0995089520915C0230915D02281727
:1033F000390771F090935D0280935C02E091600266
:10340000F0916102309721F00084F185E02D09955B
:103410000895FC01329680911601882321F0809155
:1034200089029EE187FF96E080E0915008F40895BC
:1034300021912223D1F38F5FF8CF662301F12091F0
:1034400016012223F1F02091890227FF1AC0462F8E
:103450004695469546954E3190F4677021E030E0F0
:1034600002C0220F331F6A95E2F7840F911DFC0101
:10347000828190E02823392381E0232B69F480E0C6
:103480000895FC01329608962191261721F0E8173D
:10349000F907D1F7F4CF81E008959C01FC01329641
:1034A0009FEF80E04191461751F09F3F19F4411181
:1034B00001C0982F8F5F8630A9F79F3F09F40895C8
:1034C000290F311D97FD3A95F90162830895FC019A
:1034D000329608962191261303C0DF0111971C92A2
:1034E000E817F907B9F70895E62FE695E695E6950A
:1034F000EE3168F4E80FF92FF11D677021E030E03C
:1035000001C0220F6A95EAF78281822B8283089597
:10351000E62FE695E695E695EE3170F4E80FF92F83
:10352000F11D677021E030E001C0220F6A95EAF7D3
:103530002095828128232283089520911601222339
:1035400039F02091890227FF03C00E94741A089560
:103550000E944D1A089520911601222339F02091DE
:10356000890227FF03C00E94881A08950E94671AE3
:103570000895FC01329680911601882351F08091C4
:10358000890287FF06C08EE1DF011D928A95E9F767
:10359000089586E0F9CF46E050E00E94E22321E062
:1035A000892B09F420E0822F089508950E94D51AEE
:1035B0000895811106C081E0809362020E94D61AAC
:1035C000089582E0F9CF83E0809362020E94D61AC8
:1035D00008950E94D91A089581E0809362020E94A2
:1035E000D61A08950E94EC1A0895089508950E942D
:1035F000F61A0895089508950E94F51A0895CF9334
:103600000E94FA1A0E9491100E94FB1AC0E08C2FAF
:103610000E94C60F892B31F4CF5FC530C1F780E01F
:10362000CF91089581E0FCCF85B7806885BF85B7CD
:10363000806885BF08951F921FB61F9211248F9333
:103640009F93AF93BF9380916302811113C08091C8
:103650009F029091A002A091A102B091A202419676
:10366000A11DB11D80939F029093A002A093A1027F
:10367000B093A202BF91AF919F918F911F901FBEF7
:103680001F9018958091A702843031F10E947B032E
:103690001092630288E190E020E40FB6F894A895B8
:1036A000809360000FBE2093600083B7817F8460A9
:1036B00083BF83B7816083BF7894889583B78E7FFB
:1036C00083BF0FB6F894A8958091600088618093BD
:1036D0006000109260000FBE08950E94E8060E94EC
:1036E0008003089582E084BD93E095BD9AEF97BD75
:1036F00080936E0008952FB7F89480919F02909167
:10370000A002A091A102B091A2022FBF08952FB7ED
:10371000F89460919F027091A0028091A102909113
:10372000A2022FBF08959C014FB7F89480919F0289
:103730009091A002A091A102B091A2024FBF821B62
:10374000930B089578941F921FB61F9211248F93A4
:103750009F93AF93BF9380919F029091A002A091FD
:10376000A102B091A2020196A11DB11D80939F02FA
:103770009093A002A093A102B093A202BF91AF9137
:103780009F918F911F901FBE1F90189581E080938D
:10379000E00080E28093D8001092C9008FE19EE49F
:1037A0000197F1F700C0000087E090EBDC01809307
:1037B000B0029093B102A093B202B093B30288E139
:1037C0009CE00FB6F894A895809360000FBE90938C
:1037D0006000FFCF88E19CE00FB6F894A895809335
:1037E00060000FBE90936000FFCF80918702089524
:1037F00008959C0184E08093E9009FEF8091E800A8
:10380000915085FD06C085ED8A95F1F70000911174
:10381000F5CF8091E80085FF0CC050E040E066E005
:1038200070E0C9010E94A01E8091E8008E7780930D
:10383000E8000895CF93DF93EC018091160188236F
:10384000B1F18091890287FF32C060E284E0809309
:10385000E9008FEF9091E800815095FD06C095ED4D
:103860009A95F1F700008111F5CF8091E80085FF6E
:103870001BC08091160170E050E040E0811104C04F
:1038800050E040E068E070E0CE010E94A01E809110
:10389000E8008E778093E80080E2FE01A7E6B2E0C0
:1038A00001900D928A95E1F7DF91CF91089568E03C
:1038B00081E0CDCF809364027093660260936502CD
:1038C0008091A7028430F9F48093E9008FEF909102
:1038D000E800815095FD06C095ED9A95F1F700003E
:1038E0008111F5CF8091E80085FF0DC050E040E0E8
:1038F00063E070E084E692E00E94A01E8091E80000
:103900008E778093E8000895BC0184E00E945A1CE1
:103910000895BC0183E00E945A1C0895CF93FC01D6
:10392000603221F58091A702843001F5C091E90051
:10393000CF702091EC00922F917020FD90E8C92B60
:1039400082E08093E9008091E80080FF0CC050E0A5
:1039500040E060E270E0CF010E94A01E8091E8008C
:103960008E778093E800CF70C093E900CF910895DF
:103970008091A602811109C00E947F200E94DC2054
:103980008091E20084608093E20008951092A60284
:1039900008950E94EC1A08956091A30281E06111DC
:1039A00001C080E00E94E31A08959091A70281E08F
:1039B000943009F080E06091A3020E94E91A089512
:1039C00042E061EC81E00E94FB1F42E261EC84E096
:1039D0000E94FB1F42E261EC82E00E94FB1F42E278
:1039E00060EC83E00E94FB1F9091A70281E094307D
:1039F00009F080E06091A3020E94D91A0895809195
:103A0000A902833009F463C030F48130E1F18230DF
:103A100009F4A0C008958A3009F48CC08B3009F4F1
:103A200071C0893009F052C08091A802813209F03A
:103A30004DC08091AC029091AD02009719F00297B1
:103A400009F044C08091E800877F8093E80080916E
:103A5000E80082FF37C09091F3008091F200029756
:103A600031F48091F100813011F0863021F48091A1
:103A7000F100809387028091E8008B778093E800C3
:103A80000E942F2023C08091A802813AF9F48091EE
:103A9000E800877F8093E8008091AC029091AD02AE
:103AA000892B61F460E287E692E070E00E943E1F9D
:103AB0008091E8008B778093E800089560E090E0C3
:103AC00080E0F3CF8091A7028111C1CF089580914A
:103AD000A802813AD9F78091AC029091AD02892B6E
:103AE000A9F78091E800877F8093E8008091E80043
:103AF00080FFFCCF809116018093F1008091E80057
:103B00008E77BCCF8091A802813201F78091AC0200
:103B10009091AD02892BD1F68091E800877F809348
:103B2000E8000E942F208091AA02809316010E9433
:103B3000E80608958091A802813241F68091E8005C
:103B4000877F8093E8000E942F208091AB028093B2
:103B5000880208958091A802813A09F0B7CF809138
:103B6000E800877F8093E8008091E80080FFFCCF29
:103B700080918802C1CF84B7877F84BF0FB6F89445
:103B8000A895809160008861809360001092600029
:103B90000FBE80E890E00FB6F89480936100909398
:103BA00061000FBE0E94F21A08950E947F200E94B9
:103BB000DC20E2EEF0E080818460808378940E94D3
:103BC0005B2308958AE091E00E94A31908958091F3
:103BD000A702853031F48091A702853019F00E9448
:103BE0006D1B08950E94421B8091A502882399F3C2
:103BF0000E94FF1A882379F30E948A1E0E94E80619
:103C0000EACFA0E2B0E0E7E0FEE10C94A7238091C8
:103C1000A702843009F583E08093E9008091E800F1
:103C200082FF1AC08091E80090E085FF09C050E053
:103C300040E060E270E0CE0101960E94EF1E91E04C
:103C40008091E8008B778093E800992329F060E267
:103C5000CE0101960E944C14A096E2E00C94C3237E
:103C60000E94331E0895292F33272330310521F177
:103C700068F42130310509F443C02230310509F4DC
:103C800044C090E080E030E020E026C021323105E1
:103C900051F122323105A9F76330710590F7FB012C
:103CA000EE0FFF1FE557FE4F2081318168577E4F91
:103CB000FB01808190E010C099278130910581F04F
:103CC000009729F00297E9F6ECEEF2E002C0E6E197
:103CD000F3E0849190E09F01FA01318320830895FD
:103CE000EAEFF2E0F6CF6330710558F6660F771F02
:103CF000FB01EF56FE4F2081318189E090E0ECCF4F
:103D000082E190E025E733E0E7CF8BE590E02AE120
:103D100033E0E2CF80E189BD82E189BD09B400FED4
:103D2000FDCF8091D8008F7D8093D8008091E000F6
:103D300082608093E0008091E00081FDFCCF0895D7
:103D4000AF92BF92CF92DF92FF920F931F93CF93C8
:103D5000DF936C01EB018A010E944E20F82E811145
:103D600023C00115110539F0F80180819181C81B2C
:103D7000D90BC80ED91EB12CA12C2097A9F0809187
:103D8000E80085FD22C08091E8008E778093E800EE
:103D900001151105A1F0F80180819181A80EB91ECD
:103DA000B182A08285E0F82E8F2DDF91CF911F91F7
:103DB0000F91FF90DF90CF90BF90AF9008950E9439
:103DC0004E208823D1F2F82EEFCFF60181916F01BA
:103DD0008093F1002197FFEFAF1ABF0ACECFAF92C9
:103DE000BF92CF92DF92FF920F931F93CF93DF93F7
:103DF0006C01EB018A010E944E20F82E811123C034
:103E00000115110539F0F80180819181C81BD90B8A
:103E1000C80ED91EB12CA12C2097A9F08091E800E2
:103E200085FD22C08091E8008B778093E800011522
:103E30001105A1F0F80180819181A80EB91EB1820F
:103E4000A08285E0F82E8F2DDF91CF911F910F91E9
:103E5000FF90DF90CF90BF90AF9008950E944E20CA
:103E60008823D1F2F82EEFCF8091F100F6018193F3
:103E70006F012197FFEFAF1ABF0ACECFFC018091EF
:103E8000AE029091AF0286179707A0F061157105F9
:103E900029F49091E8009E779093E80090E06115F6
:103EA000710551F4911108C08091E80082FF34C07F
:103EB00080E00895BC01F2CF8091A7028823C1F170
:103EC0008530C1F18091E80083FD30C08091E80029
:103ED00082FDEACF8091E80080FFE1CF8091F3007E
:103EE0002091F200382F6115710519F02830310545
:103EF00058F091E02830310509F090E02091E80079
:103F00002E772093E800CBCF81918093F100615010
:103F100071092F5F3F4FE7CF8091A702882341F0BF
:103F2000853041F08091E80083FFBECF81E00895A5
:103F300082E0089583E00895FC018091AE029091A3
:103F4000AF0286179707A0F06115710529F48091DB
:103F5000E8008E778093E80090E06115710551F4D8
:103F6000911108C08091E80082FF35C080E008957B
:103F7000BC01F2CF8091A7028823C9F18530C9F135
:103F80008091E80083FD31C08091E80082FDEACF96
:103F90008091E80080FFE1CF8091F3002091F20052
:103FA000382F6115710519F02830310558F091E06E
:103FB0002830310509F090E08091E8008E778093F9
:103FC000E800CBCF84918093F10031966150710964
:103FD0002F5F3F4FE6CF8091A702882341F08530C5
:103FE00041F08091E80083FFBDCF81E0089582E039
:103FF000089583E00895982F973028F08F7080936C
:10400000E90081E008959093E900242F762F50E095
:10401000981731F07091EC002091ED005091F00074
:1040200021FD02C09F5FE8CF3091EB003E7F3093CF
:10403000EB003091ED003D7F3093ED003091EB00CF
:1040400031603093EB007093EC002093ED005093BF
:10405000F0002091EE0027FDE5CF80E008958091EB
:10406000A80287FF13C08091E80082FF06C08091FC
:10407000E8008B778093E80004C08091A70281114B
:10408000F2CF08958091A7028823D9F38091E800A8
:1040900080FFF8CF8091E8008E77ECCF2091E4008C
:1040A0003091E50095E6A9012091EC00822F817006
:1040B00020FF06C08091E80080FF06C080E00895E0
:1040C0002091E80022FD1AC08091A702882389F080
:1040D000853089F08091EB0085FD0FC02091E400D0
:1040E0003091E50042175307F9F29150E1F684E070
:1040F000089582E0089583E0089581E008950E9484
:10410000EE200E94F620E0EEF0E080818160808366
:10411000E8EDF0E080818F77808319BCA7EDB0E0F7
:104120008C918E7F8C9380818F7E80831092A602EB
:1041300008950F931F93CF93DF930E94EE200E9468
:10414000F620C8EDD0E088818F77888388818068E9
:10415000888388818F7D888319BC1092A702109272
:10416000A3021092A5021092A40200EE10E0F80142
:1041700080818B7F808388818160888342E060E0DA
:1041800080E00E94FB1FE1EEF0E080818E7F808363
:10419000E2EEF0E0808181608083808188608083AE
:1041A000F80180818E7F8083888180618883DF91A0
:1041B000CF911F910F910895E8EDF0E080818F7EFF
:1041C0008083E7EDF0E080818160808384E082BFBE
:1041D00081E08093A6020E9499200895E8EDF0E026
:1041E00080818E7F80831092E20008951092DA0021
:1041F0001092E10008951F920F920FB60F921124B2
:104200002F933F934F935F936F937F938F939F93DE
:10421000AF93BF93EF93FF938091E10082FF0BC0B8
:104220008091E20082FF07C08091E1008B7F809344
:10423000E1000E945A238091DA0080FF19C080912A
:10424000D80080FF15C08091DA008E7F8093DA005D
:104250008091D90080FF96C080E189BD82E189BD4F
:1042600009B400FEFDCF81E08093A7020E94B81C34
:104270008091E10080FF19C08091E20080FF15C0AD
:104280008091E2008E7F8093E2008091E200806165
:104290008093E2008091D80080628093D80019BC9E
:1042A00085E08093A7020E94CC1C8091E10084FFEE
:1042B0002BC08091E20084FF27C080E189BD82E1AC
:1042C00089BD89B5982F917080FFFBCF8091D80070
:1042D0008F7D8093D8008091E1008F7E8093E100F4
:1042E0008091E2008F7E8093E2008091E200816005
:1042F0008093E2008091A302882309F449C084E0FE
:104300008093A7020E94D51C8091E10083FF29C001
:104310008091E20083FF25C08091E100877F809338
:10432000E10082E08093A7021092A3028091E10055
:104330008E7F8093E1008091E2008E7F8093E20087
:104340008091E20080618093E20042E060E080E0E2
:104350000E94FB1F8091F00088608093F0000E9413
:10436000C91CFF91EF91BF91AF919F918F917F9168
:104370006F915F914F913F912F910F900FBE0F90D2
:104380001F90189519BC1092A7020E94C61C70CFEE
:104390008091E30087FD93E09093A702B3CF1F9233
:1043A0000F920FB60F9211242F933F934F935F9369
:1043B0006F937F938F939F93AF93BF93CF93DF932D
:1043C000EF93FF93D091E900DF708091EC00C82F4C
:1043D000C17080FDC0E81092E9008091F000877FF5
:1043E0008093F00078940E9413221092E90080914B
:1043F000F00088608093F000CD2BCF70C093E9006F
:10440000FF91EF91DF91CF91BF91AF919F918F91EC
:104410007F916F915F914F913F912F910F900FBEC0
:104420000F901F901895AAE2B0E0E9E1F2E20C9437
:10443000A62388EA92E02091F100FC012193CF01AC
:10444000F2E0803B9F07B9F70E94FF1C8091E800D3
:1044500083FF1EC18091A8029091A9029A3008F0B2
:1044600017C1E92FF0E0E55AFB4D0C948A23803800
:1044700099F0823809F00CC18091AC028F708730BE
:1044800008F006C18093E9008091EB0085FB882746
:1044900080F91092E90006C08091A4029091A502D3
:1044A000911182609091E800977F9093E80080934B
:1044B000F1001092F1008091E8008E77E5C088232A
:1044C00009F4D3C0823009F0E3C08091AA028111BF
:1044D000D6C08091AC028F702FEF280F263008F0E5
:1044E000D7C08093E9002091EB0020FFC8C0933033
:1044F00031F48091EB0080628093EB00C0C090911A
:10450000EB0090619093EB0021E030E001C0220FBE
:104510008A95EAF72093EA001092EA008091EB0076
:104520008860EACF8111B4C01091AA021F778091F0
:10453000E3008078812B8093E3008091E800877FFF
:104540008093E8000E942F208091E80080FFFCCF3C
:104550008091E30080688093E30082E0111183E0A2
:104560008093A70295C08058823008F091C0809156
:10457000AA029091AB028C3D23E09207A1F583E063
:104580008A838AE289834FB7F894DE01139620E08C
:104590003EE051E2E32FF0E050935700E49120FF1A
:1045A00003C0E295EF703F5FEF708E2F90E0EA302E
:1045B000C0F0C7968D939D932F5F243159F74FBF5D
:1045C0008091E800877F8093E8006AE270E0CE0186
:1045D00001960E943E1F8091E8008B778093E8004F
:1045E00057C0C096E7CF6091AC027091AD02AE01AA
:1045F0004F5F5F4F0E94301EBC01892B09F448C0F9
:104600009091E800977F9093E80089819A810E94B9
:104610009C1FE1CF8038E1F58091E800877F80938F
:10462000E8008091A3028093F10045CF811130C052
:104630009091AA02923060F58091E800877F809384
:10464000E8009093A3020E942F208091A302882368
:1046500011F084E005C08091E30087FDFACF81E08E
:104660008093A7020E94E01C13C08091AA028130AF
:1046700079F481E0933009F080E08093A5021092F4
:10468000E9008091E800877F8093E8000E942F2056
:104690008091E80083FF0AC08091E800877F8093C3
:1046A000E8008091EB0080628093EB00AA96E3E043
:1046B0000C94C2230895CF938091A7028823A1F080
:1046C000C091E900CF709091EC00892F817090FD2E
:1046D00080E8C82B1092E9008091E80083FD0E94D9
:1046E0001322CF70C093E900CF91089597FB072E56
:1046F00016F4009407D077FD09D00E94CE2307FC62
:1047000005D03EF4909581959F4F089570956195E1
:104710007F4F0895EE0FFF1F0590F491E02D09944F
:1047200069279627692778278727782708952F9262
:104730003F924F925F926F927F928F929F92AF9231
:10474000BF92CF92DF92EF92FF920F931F93CF937E
:10475000DF93CDB7DEB7CA1BDB0B0FB6F894DEBF15
:104760000FBECDBF09942A88398848885F846E843B
:104770007D848C849B84AA84B984C884DF80EE8085
:10478000FD800C811B81AA81B981CE0FD11D0FB68E
:10479000F894DEBF0FBECDBFED010895AA1BBB1B71
:1047A00051E107C0AA1FBB1FA617B70710F0A61B31
:1047B000B70B881F991F5A95A9F780959095BC0152
:1047C000CD010895FB01DC0104C08D910190801999
:1047D00021F441505040C8F7881B990B0895FB0104
:1047E000DC0102C001900D9241505040D8F708956D
:1047F000F999FECF92BD81BDF89A992780B50895A9
:10480000A8E1B0E042E050E00C942C24262FF99966
:10481000FECF92BD81BDF89A019700B4021639F01F
:104820001FBA20BD0FB6F894FA9AF99A0FBE0895F0
:104830000396272F0E9407240E940624252F0E94FA
:104840000724242F0C9407240196272F0E94072465
:104850000C940624DC01CB01FC01F999FECF06C0C3
:10486000F2BDE1BDF89A319600B40D92415050402E
:10487000B8F70895F894FFCFDD04DD040E050E05AA
:104880009B05B7053D053D05C205290638063806D6
:104890005E146A1491149D14A814B314B614B614BB
:1048A000B614B614B614B914BD14C514D214DF145A
:1048B000E214E514F21437225F2248235F224823D2
:0A48C0009222B32248230A23162394
:1048CA001102280850011E0A1401F51B1A1CF91BB3
:1048DA00891C841CF81B01E200E900EA00B500B655
:1048EA0000B700CD008301CC008A01920194012116
:1048FA0002230224022502260227022A02B300B456
:10490A00006F007000818283E200E900EA00B500CE
:10491A00B600B700CD008301CC008A019201940150
:10492A002102230224022502260227022A02B300B8
:10493A00B4006F007000818283F7F6F5F4F1F0326B
:10494A0033C63767663630904022B65F048703A9BC
:08495A00032C03450365030073
:00000001FF
